{
  "contractName": "USDT",
  "abi": [
    {
      "inputs": [],
      "stateMutability": "nonpayable",
      "type": "constructor"
    },
    {
      "anonymous": false,
      "inputs": [
        {
          "indexed": true,
          "internalType": "address",
          "name": "owner",
          "type": "address"
        },
        {
          "indexed": true,
          "internalType": "address",
          "name": "spender",
          "type": "address"
        },
        {
          "indexed": false,
          "internalType": "uint256",
          "name": "value",
          "type": "uint256"
        }
      ],
      "name": "Approval",
      "type": "event"
    },
    {
      "anonymous": false,
      "inputs": [
        {
          "indexed": true,
          "internalType": "address",
          "name": "from",
          "type": "address"
        },
        {
          "indexed": true,
          "internalType": "address",
          "name": "to",
          "type": "address"
        },
        {
          "indexed": false,
          "internalType": "uint256",
          "name": "value",
          "type": "uint256"
        }
      ],
      "name": "Transfer",
      "type": "event"
    },
    {
      "inputs": [
        {
          "internalType": "address",
          "name": "owner",
          "type": "address"
        },
        {
          "internalType": "address",
          "name": "spender",
          "type": "address"
        }
      ],
      "name": "allowance",
      "outputs": [
        {
          "internalType": "uint256",
          "name": "",
          "type": "uint256"
        }
      ],
      "stateMutability": "view",
      "type": "function",
      "constant": true
    },
    {
      "inputs": [
        {
          "internalType": "address",
          "name": "spender",
          "type": "address"
        },
        {
          "internalType": "uint256",
          "name": "amount",
          "type": "uint256"
        }
      ],
      "name": "approve",
      "outputs": [
        {
          "internalType": "bool",
          "name": "",
          "type": "bool"
        }
      ],
      "stateMutability": "nonpayable",
      "type": "function"
    },
    {
      "inputs": [
        {
          "internalType": "address",
          "name": "account",
          "type": "address"
        }
      ],
      "name": "balanceOf",
      "outputs": [
        {
          "internalType": "uint256",
          "name": "",
          "type": "uint256"
        }
      ],
      "stateMutability": "view",
      "type": "function",
      "constant": true
    },
    {
      "inputs": [
        {
          "internalType": "address",
          "name": "spender",
          "type": "address"
        },
        {
          "internalType": "uint256",
          "name": "subtractedValue",
          "type": "uint256"
        }
      ],
      "name": "decreaseAllowance",
      "outputs": [
        {
          "internalType": "bool",
          "name": "",
          "type": "bool"
        }
      ],
      "stateMutability": "nonpayable",
      "type": "function"
    },
    {
      "inputs": [
        {
          "internalType": "address",
          "name": "spender",
          "type": "address"
        },
        {
          "internalType": "uint256",
          "name": "addedValue",
          "type": "uint256"
        }
      ],
      "name": "increaseAllowance",
      "outputs": [
        {
          "internalType": "bool",
          "name": "",
          "type": "bool"
        }
      ],
      "stateMutability": "nonpayable",
      "type": "function"
    },
    {
      "inputs": [],
      "name": "name",
      "outputs": [
        {
          "internalType": "string",
          "name": "",
          "type": "string"
        }
      ],
      "stateMutability": "view",
      "type": "function",
      "constant": true
    },
    {
      "inputs": [],
      "name": "symbol",
      "outputs": [
        {
          "internalType": "string",
          "name": "",
          "type": "string"
        }
      ],
      "stateMutability": "view",
      "type": "function",
      "constant": true
    },
    {
      "inputs": [],
      "name": "totalSupply",
      "outputs": [
        {
          "internalType": "uint256",
          "name": "",
          "type": "uint256"
        }
      ],
      "stateMutability": "view",
      "type": "function",
      "constant": true
    },
    {
      "inputs": [
        {
          "internalType": "address",
          "name": "to",
          "type": "address"
        },
        {
          "internalType": "uint256",
          "name": "amount",
          "type": "uint256"
        }
      ],
      "name": "transfer",
      "outputs": [
        {
          "internalType": "bool",
          "name": "",
          "type": "bool"
        }
      ],
      "stateMutability": "nonpayable",
      "type": "function"
    },
    {
      "inputs": [
        {
          "internalType": "address",
          "name": "from",
          "type": "address"
        },
        {
          "internalType": "address",
          "name": "to",
          "type": "address"
        },
        {
          "internalType": "uint256",
          "name": "amount",
          "type": "uint256"
        }
      ],
      "name": "transferFrom",
      "outputs": [
        {
          "internalType": "bool",
          "name": "",
          "type": "bool"
        }
      ],
      "stateMutability": "nonpayable",
      "type": "function"
    },
    {
      "inputs": [],
      "name": "mint",
      "outputs": [],
      "stateMutability": "nonpayable",
      "type": "function"
    },
    {
      "inputs": [],
      "name": "decimals",
      "outputs": [
        {
          "internalType": "uint8",
          "name": "",
          "type": "uint8"
        }
      ],
      "stateMutability": "pure",
      "type": "function",
      "constant": true
    }
  ],
  "bytecode": "0x60806040523480156200001157600080fd5b506040518060400160405280600a81526020017f54657468657220555344000000000000000000000000000000000000000000008152506040518060400160405280600481526020017f555344540000000000000000000000000000000000000000000000000000000081525081600390805190602001906200009692919062000288565b508060049080519060200190620000af92919062000288565b505050620000c2620000c860201b60201c565b620006e9565b6200010533620000dd6200010760201b60201c565b600a620000eb919062000493565b600a620000f99190620005d0565b6200011060201b60201c565b565b60006006905090565b600073ffffffffffffffffffffffffffffffffffffffff168273ffffffffffffffffffffffffffffffffffffffff16141562000183576040517f08c379a00000000000000000000000000000000000000000000000000000000081526004016200017a906200038b565b60405180910390fd5b62000197600083836200027e60201b60201c565b8060026000828254620001ab9190620003db565b92505081905550806000808473ffffffffffffffffffffffffffffffffffffffff1673ffffffffffffffffffffffffffffffffffffffff168152602001908152602001600020600082825401925050819055508173ffffffffffffffffffffffffffffffffffffffff16600073ffffffffffffffffffffffffffffffffffffffff167fddf252ad1be2c89b69c2b068fc378daa952ba7f163c4a11628f55a4df523b3ef836040516200025e9190620003ad565b60405180910390a36200027a600083836200028360201b60201c565b5050565b505050565b505050565b828054620002969062000648565b90600052602060002090601f016020900481019282620002ba576000855562000306565b82601f10620002d557805160ff191683800117855562000306565b8280016001018555821562000306579182015b8281111562000305578251825591602001919060010190620002e8565b5b50905062000315919062000319565b5090565b5b80821115620003345760008160009055506001016200031a565b5090565b600062000347601f83620003ca565b91507f45524332303a206d696e7420746f20746865207a65726f2061646472657373006000830152602082019050919050565b620003858162000631565b82525050565b60006020820190508181036000830152620003a68162000338565b9050919050565b6000602082019050620003c460008301846200037a565b92915050565b600082825260208201905092915050565b6000620003e88262000631565b9150620003f58362000631565b9250827fffffffffffffffffffffffffffffffffffffffffffffffffffffffffffffffff038211156200042d576200042c6200067e565b5b828201905092915050565b6000808291508390505b60018511156200048a578086048111156200046257620004616200067e565b5b6001851615620004725780820291505b80810290506200048285620006dc565b945062000442565b94509492505050565b6000620004a08262000631565b9150620004ad836200063b565b9250620004dc7fffffffffffffffffffffffffffffffffffffffffffffffffffffffffffffffff8484620004e4565b905092915050565b600082620004f65760019050620005c9565b81620005065760009050620005c9565b81600181146200051f57600281146200052a5762000560565b6001915050620005c9565b60ff8411156200053f576200053e6200067e565b5b8360020a9150848211156200055957620005586200067e565b5b50620005c9565b5060208310610133831016604e8410600b84101617156200059a5782820a9050838111156200059457620005936200067e565b5b620005c9565b620005a9848484600162000438565b92509050818404811115620005c357620005c26200067e565b5b81810290505b9392505050565b6000620005dd8262000631565b9150620005ea8362000631565b9250817fffffffffffffffffffffffffffffffffffffffffffffffffffffffffffffffff04831182151516156200062657620006256200067e565b5b828202905092915050565b6000819050919050565b600060ff82169050919050565b600060028204905060018216806200066157607f821691505b60208210811415620006785762000677620006ad565b5b50919050565b7f4e487b7100000000000000000000000000000000000000000000000000000000600052601160045260246000fd5b7f4e487b7100000000000000000000000000000000000000000000000000000000600052602260045260246000fd5b60008160011c9050919050565b6115c580620006f96000396000f3fe608060405234801561001057600080fd5b50600436106100b45760003560e01c80633950935111610071578063395093511461017d57806370a08231146101ad57806395d89b41146101dd578063a457c2d7146101fb578063a9059cbb1461022b578063dd62ed3e1461025b576100b4565b806306fdde03146100b9578063095ea7b3146100d75780631249c58b1461010757806318160ddd1461011157806323b872dd1461012f578063313ce5671461015f575b600080fd5b6100c161028b565b6040516100ce9190611096565b60405180910390f35b6100f160048036038101906100ec9190610cf5565b61031d565b6040516100fe919061107b565b60405180910390f35b61010f610340565b005b61011961036b565b60405161012691906111b8565b60405180910390f35b61014960048036038101906101449190610ca6565b610375565b604051610156919061107b565b60405180910390f35b6101676103a4565b60405161017491906111d3565b60405180910390f35b61019760048036038101906101929190610cf5565b6103ad565b6040516101a4919061107b565b60405180910390f35b6101c760048036038101906101c29190610c41565b6103e4565b6040516101d491906111b8565b60405180910390f35b6101e561042c565b6040516101f29190611096565b60405180910390f35b61021560048036038101906102109190610cf5565b6104be565b604051610222919061107b565b60405180910390f35b61024560048036038101906102409190610cf5565b610535565b604051610252919061107b565b60405180910390f35b61027560048036038101906102709190610c6a565b610558565b60405161028291906111b8565b60405180910390f35b60606003805461029a906114b3565b80601f01602080910402602001604051908101604052809291908181526020018280546102c6906114b3565b80156103135780601f106102e857610100808354040283529160200191610313565b820191906000526020600020905b8154815290600101906020018083116102f657829003601f168201915b5050505050905090565b6000806103286105df565b90506103358185856105e7565b600191505092915050565b6103693361034c6103a4565b600a61035891906112b3565b600a61036491906113d1565b6107b2565b565b6000600254905090565b6000806103806105df565b905061038d858285610909565b610398858585610995565b60019150509392505050565b60006006905090565b6000806103b86105df565b90506103d98185856103ca8589610558565b6103d4919061120a565b6105e7565b600191505092915050565b60008060008373ffffffffffffffffffffffffffffffffffffffff1673ffffffffffffffffffffffffffffffffffffffff168152602001908152602001600020549050919050565b60606004805461043b906114b3565b80601f0160208091040260200160405190810160405280929190818152602001828054610467906114b3565b80156104b45780601f10610489576101008083540402835291602001916104b4565b820191906000526020600020905b81548152906001019060200180831161049757829003601f168201915b5050505050905090565b6000806104c96105df565b905060006104d78286610558565b90508381101561051c576040517f08c379a000000000000000000000000000000000000000000000000000000000815260040161051390611178565b60405180910390fd5b61052982868684036105e7565b60019250505092915050565b6000806105406105df565b905061054d818585610995565b600191505092915050565b6000600160008473ffffffffffffffffffffffffffffffffffffffff1673ffffffffffffffffffffffffffffffffffffffff16815260200190815260200160002060008373ffffffffffffffffffffffffffffffffffffffff1673ffffffffffffffffffffffffffffffffffffffff16815260200190815260200160002054905092915050565b600033905090565b600073ffffffffffffffffffffffffffffffffffffffff168373ffffffffffffffffffffffffffffffffffffffff161415610657576040517f08c379a000000000000000000000000000000000000000000000000000000000815260040161064e90611158565b60405180910390fd5b600073ffffffffffffffffffffffffffffffffffffffff168273ffffffffffffffffffffffffffffffffffffffff1614156106c7576040517f08c379a00000000000000000000000000000000000000000000000000000000081526004016106be906110d8565b60405180910390fd5b80600160008573ffffffffffffffffffffffffffffffffffffffff1673ffffffffffffffffffffffffffffffffffffffff16815260200190815260200160002060008473ffffffffffffffffffffffffffffffffffffffff1673ffffffffffffffffffffffffffffffffffffffff168152602001908152602001600020819055508173ffffffffffffffffffffffffffffffffffffffff168373ffffffffffffffffffffffffffffffffffffffff167f8c5be1e5ebec7d5bd14f71427d1e84f3dd0314c0f7b2291e5b200ac8c7c3b925836040516107a591906111b8565b60405180910390a3505050565b600073ffffffffffffffffffffffffffffffffffffffff168273ffffffffffffffffffffffffffffffffffffffff161415610822576040517f08c379a000000000000000000000000000000000000000000000000000000000815260040161081990611198565b60405180910390fd5b61082e60008383610c0d565b8060026000828254610840919061120a565b92505081905550806000808473ffffffffffffffffffffffffffffffffffffffff1673ffffffffffffffffffffffffffffffffffffffff168152602001908152602001600020600082825401925050819055508173ffffffffffffffffffffffffffffffffffffffff16600073ffffffffffffffffffffffffffffffffffffffff167fddf252ad1be2c89b69c2b068fc378daa952ba7f163c4a11628f55a4df523b3ef836040516108f191906111b8565b60405180910390a361090560008383610c12565b5050565b60006109158484610558565b90507fffffffffffffffffffffffffffffffffffffffffffffffffffffffffffffffff811461098f5781811015610981576040517f08c379a0000000000000000000000000000000000000000000000000000000008152600401610978906110f8565b60405180910390fd5b61098e84848484036105e7565b5b50505050565b600073ffffffffffffffffffffffffffffffffffffffff168373ffffffffffffffffffffffffffffffffffffffff161415610a05576040517f08c379a00000000000000000000000000000000000000000000000000000000081526004016109fc90611138565b60405180910390fd5b600073ffffffffffffffffffffffffffffffffffffffff168273ffffffffffffffffffffffffffffffffffffffff161415610a75576040517f08c379a0000000000000000000000000000000000000000000000000000000008152600401610a6c906110b8565b60405180910390fd5b610a80838383610c0d565b60008060008573ffffffffffffffffffffffffffffffffffffffff1673ffffffffffffffffffffffffffffffffffffffff16815260200190815260200160002054905081811015610b06576040517f08c379a0000000000000000000000000000000000000000000000000000000008152600401610afd90611118565b60405180910390fd5b8181036000808673ffffffffffffffffffffffffffffffffffffffff1673ffffffffffffffffffffffffffffffffffffffff16815260200190815260200160002081905550816000808573ffffffffffffffffffffffffffffffffffffffff1673ffffffffffffffffffffffffffffffffffffffff168152602001908152602001600020600082825401925050819055508273ffffffffffffffffffffffffffffffffffffffff168473ffffffffffffffffffffffffffffffffffffffff167fddf252ad1be2c89b69c2b068fc378daa952ba7f163c4a11628f55a4df523b3ef84604051610bf491906111b8565b60405180910390a3610c07848484610c12565b50505050565b505050565b505050565b600081359050610c2681611561565b92915050565b600081359050610c3b81611578565b92915050565b600060208284031215610c5357600080fd5b6000610c6184828501610c17565b91505092915050565b60008060408385031215610c7d57600080fd5b6000610c8b85828601610c17565b9250506020610c9c85828601610c17565b9150509250929050565b600080600060608486031215610cbb57600080fd5b6000610cc986828701610c17565b9350506020610cda86828701610c17565b9250506040610ceb86828701610c2c565b9150509250925092565b60008060408385031215610d0857600080fd5b6000610d1685828601610c17565b9250506020610d2785828601610c2c565b9150509250929050565b610d3a8161143d565b82525050565b6000610d4b826111ee565b610d5581856111f9565b9350610d65818560208601611480565b610d6e81611543565b840191505092915050565b6000610d866023836111f9565b91507f45524332303a207472616e7366657220746f20746865207a65726f206164647260008301527f65737300000000000000000000000000000000000000000000000000000000006020830152604082019050919050565b6000610dec6022836111f9565b91507f45524332303a20617070726f766520746f20746865207a65726f20616464726560008301527f73730000000000000000000000000000000000000000000000000000000000006020830152604082019050919050565b6000610e52601d836111f9565b91507f45524332303a20696e73756666696369656e7420616c6c6f77616e63650000006000830152602082019050919050565b6000610e926026836111f9565b91507f45524332303a207472616e7366657220616d6f756e742065786365656473206260008301527f616c616e636500000000000000000000000000000000000000000000000000006020830152604082019050919050565b6000610ef86025836111f9565b91507f45524332303a207472616e736665722066726f6d20746865207a65726f20616460008301527f64726573730000000000000000000000000000000000000000000000000000006020830152604082019050919050565b6000610f5e6024836111f9565b91507f45524332303a20617070726f76652066726f6d20746865207a65726f2061646460008301527f72657373000000000000000000000000000000000000000000000000000000006020830152604082019050919050565b6000610fc46025836111f9565b91507f45524332303a2064656372656173656420616c6c6f77616e63652062656c6f7760008301527f207a65726f0000000000000000000000000000000000000000000000000000006020830152604082019050919050565b600061102a601f836111f9565b91507f45524332303a206d696e7420746f20746865207a65726f2061646472657373006000830152602082019050919050565b61106681611469565b82525050565b61107581611473565b82525050565b60006020820190506110906000830184610d31565b92915050565b600060208201905081810360008301526110b08184610d40565b905092915050565b600060208201905081810360008301526110d181610d79565b9050919050565b600060208201905081810360008301526110f181610ddf565b9050919050565b6000602082019050818103600083015261111181610e45565b9050919050565b6000602082019050818103600083015261113181610e85565b9050919050565b6000602082019050818103600083015261115181610eeb565b9050919050565b6000602082019050818103600083015261117181610f51565b9050919050565b6000602082019050818103600083015261119181610fb7565b9050919050565b600060208201905081810360008301526111b18161101d565b9050919050565b60006020820190506111cd600083018461105d565b92915050565b60006020820190506111e8600083018461106c565b92915050565b600081519050919050565b600082825260208201905092915050565b600061121582611469565b915061122083611469565b9250827fffffffffffffffffffffffffffffffffffffffffffffffffffffffffffffffff03821115611255576112546114e5565b5b828201905092915050565b6000808291508390505b60018511156112aa57808604811115611286576112856114e5565b5b60018516156112955780820291505b80810290506112a385611554565b945061126a565b94509492505050565b60006112be82611469565b91506112c983611473565b92506112f67fffffffffffffffffffffffffffffffffffffffffffffffffffffffffffffffff84846112fe565b905092915050565b60008261130e57600190506113ca565b8161131c57600090506113ca565b8160018114611332576002811461133c5761136b565b60019150506113ca565b60ff84111561134e5761134d6114e5565b5b8360020a915084821115611365576113646114e5565b5b506113ca565b5060208310610133831016604e8410600b84101617156113a05782820a90508381111561139b5761139a6114e5565b5b6113ca565b6113ad8484846001611260565b925090508184048111156113c4576113c36114e5565b5b81810290505b9392505050565b60006113dc82611469565b91506113e783611469565b9250817fffffffffffffffffffffffffffffffffffffffffffffffffffffffffffffffff04831182151516156114205761141f6114e5565b5b828202905092915050565b600061143682611449565b9050919050565b60008115159050919050565b600073ffffffffffffffffffffffffffffffffffffffff82169050919050565b6000819050919050565b600060ff82169050919050565b60005b8381101561149e578082015181840152602081019050611483565b838111156114ad576000848401525b50505050565b600060028204905060018216806114cb57607f821691505b602082108114156114df576114de611514565b5b50919050565b7f4e487b7100000000000000000000000000000000000000000000000000000000600052601160045260246000fd5b7f4e487b7100000000000000000000000000000000000000000000000000000000600052602260045260246000fd5b6000601f19601f8301169050919050565b60008160011c9050919050565b61156a8161142b565b811461157557600080fd5b50565b61158181611469565b811461158c57600080fd5b5056fea2646970667358221220aea191fb8f94bf7f1dd049b457f4b59ed47b0e7b7eff8ba6727e18230819d83c64736f6c63430008000033",
  "immutableReferences": {},
  "source": "// SPDX-License-Identifier: SEE LICENSE IN LICENSE\r\npragma solidity ^0.8.0;\r\n\r\nimport \"./../node_modules/@openzeppelin/contracts/token/ERC20/ERC20.sol\";\r\n\r\ncontract USDT is ERC20(\"Tether USD\", \"USDT\") {\r\n    constructor() {\r\n        mint();\r\n    }\r\n\r\n    function mint() public {\r\n        _mint(msg.sender, 10 * 10 ** decimals());\r\n    }\r\n\r\n    function decimals() public pure override returns (uint8) {\r\n        return 6;\r\n    }\r\n}\r\n",
  "sourcePath": "C:\\Users\\Ebenezer\\Desktop\\EBEN\\notarize-app\\contracts\\USDT.sol",
  "compiler": {
    "name": "solc",
    "version": "0.8.0+commit.c7dfd78e.Emscripten.clang"
  },
  "schemaVersion": "3.4.11",
  "updatedAt": "2022-12-21T01:20:39.991Z",
  "networkType": "ethereum",
  "devdoc": {
    "kind": "dev",
    "methods": {
      "allowance(address,address)": {
        "details": "See {IERC20-allowance}."
      },
      "approve(address,uint256)": {
        "details": "See {IERC20-approve}. NOTE: If `amount` is the maximum `uint256`, the allowance is not updated on `transferFrom`. This is semantically equivalent to an infinite approval. Requirements: - `spender` cannot be the zero address."
      },
      "balanceOf(address)": {
        "details": "See {IERC20-balanceOf}."
      },
      "decimals()": {
        "details": "Returns the number of decimals used to get its user representation. For example, if `decimals` equals `2`, a balance of `505` tokens should be displayed to a user as `5.05` (`505 / 10 ** 2`). Tokens usually opt for a value of 18, imitating the relationship between Ether and Wei. This is the value {ERC20} uses, unless this function is overridden; NOTE: This information is only used for _display_ purposes: it in no way affects any of the arithmetic of the contract, including {IERC20-balanceOf} and {IERC20-transfer}."
      },
      "decreaseAllowance(address,uint256)": {
        "details": "Atomically decreases the allowance granted to `spender` by the caller. This is an alternative to {approve} that can be used as a mitigation for problems described in {IERC20-approve}. Emits an {Approval} event indicating the updated allowance. Requirements: - `spender` cannot be the zero address. - `spender` must have allowance for the caller of at least `subtractedValue`."
      },
      "increaseAllowance(address,uint256)": {
        "details": "Atomically increases the allowance granted to `spender` by the caller. This is an alternative to {approve} that can be used as a mitigation for problems described in {IERC20-approve}. Emits an {Approval} event indicating the updated allowance. Requirements: - `spender` cannot be the zero address."
      },
      "name()": {
        "details": "Returns the name of the token."
      },
      "symbol()": {
        "details": "Returns the symbol of the token, usually a shorter version of the name."
      },
      "totalSupply()": {
        "details": "See {IERC20-totalSupply}."
      },
      "transfer(address,uint256)": {
        "details": "See {IERC20-transfer}. Requirements: - `to` cannot be the zero address. - the caller must have a balance of at least `amount`."
      },
      "transferFrom(address,address,uint256)": {
        "details": "See {IERC20-transferFrom}. Emits an {Approval} event indicating the updated allowance. This is not required by the EIP. See the note at the beginning of {ERC20}. NOTE: Does not update the allowance if the current allowance is the maximum `uint256`. Requirements: - `from` and `to` cannot be the zero address. - `from` must have a balance of at least `amount`. - the caller must have allowance for ``from``'s tokens of at least `amount`."
      }
    },
    "version": 1
  },
  "userdoc": {
    "kind": "user",
    "methods": {},
    "version": 1
  }
}