{
  "contractName": "Notarize",
  "abi": [
    {
      "inputs": [
        {
          "internalType": "address",
          "name": "tokenAddress",
          "type": "address"
        }
      ],
      "stateMutability": "nonpayable",
      "type": "constructor"
    },
    {
      "anonymous": false,
      "inputs": [
        {
          "indexed": false,
          "internalType": "bytes",
          "name": "",
          "type": "bytes"
        },
        {
          "indexed": false,
          "internalType": "uint256",
          "name": "",
          "type": "uint256"
        },
        {
          "indexed": false,
          "internalType": "address",
          "name": "",
          "type": "address"
        }
      ],
      "name": "NotarizeDoc",
      "type": "event"
    },
    {
      "anonymous": false,
      "inputs": [
        {
          "indexed": true,
          "internalType": "address",
          "name": "previousOwner",
          "type": "address"
        },
        {
          "indexed": true,
          "internalType": "address",
          "name": "newOwner",
          "type": "address"
        }
      ],
      "name": "OwnershipTransferred",
      "type": "event"
    },
    {
      "anonymous": false,
      "inputs": [
        {
          "indexed": false,
          "internalType": "uint256",
          "name": "",
          "type": "uint256"
        },
        {
          "indexed": false,
          "internalType": "uint256",
          "name": "",
          "type": "uint256"
        },
        {
          "indexed": false,
          "internalType": "address",
          "name": "",
          "type": "address"
        },
        {
          "indexed": false,
          "internalType": "uint256",
          "name": "",
          "type": "uint256"
        }
      ],
      "name": "Subscription",
      "type": "event"
    },
    {
      "anonymous": false,
      "inputs": [
        {
          "indexed": false,
          "internalType": "uint256",
          "name": "",
          "type": "uint256"
        },
        {
          "indexed": false,
          "internalType": "uint256",
          "name": "",
          "type": "uint256"
        }
      ],
      "name": "Withdrawal",
      "type": "event"
    },
    {
      "inputs": [],
      "name": "owner",
      "outputs": [
        {
          "internalType": "address",
          "name": "",
          "type": "address"
        }
      ],
      "stateMutability": "view",
      "type": "function"
    },
    {
      "inputs": [],
      "name": "renounceOwnership",
      "outputs": [],
      "stateMutability": "nonpayable",
      "type": "function"
    },
    {
      "inputs": [
        {
          "internalType": "address",
          "name": "newOwner",
          "type": "address"
        }
      ],
      "name": "transferOwnership",
      "outputs": [],
      "stateMutability": "nonpayable",
      "type": "function"
    },
    {
      "inputs": [
        {
          "internalType": "bytes",
          "name": "ipfsHashOfDoc",
          "type": "bytes"
        }
      ],
      "name": "notarizeDoc",
      "outputs": [],
      "stateMutability": "nonpayable",
      "type": "function"
    },
    {
      "inputs": [
        {
          "internalType": "uint256",
          "name": "newPrice",
          "type": "uint256"
        }
      ],
      "name": "setSubscriptionPrice",
      "outputs": [],
      "stateMutability": "nonpayable",
      "type": "function"
    },
    {
      "inputs": [
        {
          "internalType": "uint256",
          "name": "newPeriod",
          "type": "uint256"
        }
      ],
      "name": "setSubscriptionPeriod",
      "outputs": [],
      "stateMutability": "nonpayable",
      "type": "function"
    },
    {
      "inputs": [
        {
          "internalType": "uint256",
          "name": "noOfSubscriptionCycles",
          "type": "uint256"
        }
      ],
      "name": "subscribe",
      "outputs": [],
      "stateMutability": "nonpayable",
      "type": "function"
    },
    {
      "inputs": [
        {
          "internalType": "address",
          "name": "docCreator",
          "type": "address"
        }
      ],
      "name": "getNotarizedDocs",
      "outputs": [
        {
          "components": [
            {
              "internalType": "bytes",
              "name": "docHash",
              "type": "bytes"
            },
            {
              "internalType": "uint256",
              "name": "timeNotarized",
              "type": "uint256"
            },
            {
              "internalType": "address",
              "name": "creator",
              "type": "address"
            }
          ],
          "internalType": "struct Notarize.Doc[]",
          "name": "userDocs",
          "type": "tuple[]"
        }
      ],
      "stateMutability": "view",
      "type": "function"
    },
    {
      "inputs": [],
      "name": "getSubscriptionPrice",
      "outputs": [
        {
          "internalType": "uint256",
          "name": "",
          "type": "uint256"
        }
      ],
      "stateMutability": "view",
      "type": "function"
    },
    {
      "inputs": [],
      "name": "getSubscriptionPeriod",
      "outputs": [
        {
          "internalType": "uint256",
          "name": "",
          "type": "uint256"
        }
      ],
      "stateMutability": "view",
      "type": "function"
    },
    {
      "inputs": [],
      "name": "getTokenPaymentAddress",
      "outputs": [
        {
          "internalType": "address",
          "name": "",
          "type": "address"
        }
      ],
      "stateMutability": "view",
      "type": "function"
    },
    {
      "inputs": [
        {
          "internalType": "address",
          "name": "user",
          "type": "address"
        }
      ],
      "name": "getUserSubscriptionDeadline",
      "outputs": [
        {
          "internalType": "uint256",
          "name": "",
          "type": "uint256"
        }
      ],
      "stateMutability": "view",
      "type": "function"
    },
    {
      "inputs": [],
      "name": "withdraw",
      "outputs": [],
      "stateMutability": "nonpayable",
      "type": "function"
    }
  ],
  "bytecode": "0x60806040523480156200001157600080fd5b506040516200207d3803806200207d8339818101604052810190620000379190620002bb565b620000576200004b620000ca60201b60201c565b620000d260201b60201c565b6001808190555080600460006101000a81548173ffffffffffffffffffffffffffffffffffffffff021916908373ffffffffffffffffffffffffffffffffffffffff160217905550620000b160036200019660201b60201c565b620000c36005620001c060201b60201c565b5062000444565b600033905090565b60008060009054906101000a900473ffffffffffffffffffffffffffffffffffffffff169050816000806101000a81548173ffffffffffffffffffffffffffffffffffffffff021916908373ffffffffffffffffffffffffffffffffffffffff1602179055508173ffffffffffffffffffffffffffffffffffffffff168173ffffffffffffffffffffffffffffffffffffffff167f8be0079c531659141344cd1fd0a4f28419497f9722a3daafe3b4186f6b6457e060405160405180910390a35050565b620001a6620001ea60201b60201c565b620f424081620001b791906200035c565b60028190555050565b620001d0620001ea60201b60201c565b6201518081620001e191906200035c565b60038190555050565b620001fa620000ca60201b60201c565b73ffffffffffffffffffffffffffffffffffffffff16620002206200027b60201b60201c565b73ffffffffffffffffffffffffffffffffffffffff161462000279576040517f08c379a0000000000000000000000000000000000000000000000000000000008152600401620002709062000329565b60405180910390fd5b565b60008060009054906101000a900473ffffffffffffffffffffffffffffffffffffffff16905090565b600081519050620002b5816200042a565b92915050565b600060208284031215620002ce57600080fd5b6000620002de84828501620002a4565b91505092915050565b6000620002f66020836200034b565b91507f4f776e61626c653a2063616c6c6572206973206e6f7420746865206f776e65726000830152602082019050919050565b600060208201905081810360008301526200034481620002e7565b9050919050565b600082825260208201905092915050565b60006200036982620003f1565b91506200037683620003f1565b9250817fffffffffffffffffffffffffffffffffffffffffffffffffffffffffffffffff0483118215151615620003b257620003b1620003fb565b5b828202905092915050565b6000620003ca82620003d1565b9050919050565b600073ffffffffffffffffffffffffffffffffffffffff82169050919050565b6000819050919050565b7f4e487b7100000000000000000000000000000000000000000000000000000000600052601160045260246000fd5b6200043581620003bd565b81146200044157600080fd5b50565b611c2980620004546000396000f3fe608060405234801561001057600080fd5b50600436106100cf5760003560e01c8063715018a61161008c578063bb0f0f3511610066578063bb0f0f35146101c4578063c5d28700146101e2578063f2fde38b14610212578063f75ab4581461022e576100cf565b8063715018a6146101805780638da5cb5b1461018a578063ae1325ff146101a8576100cf565b80630f574ba7146100d45780631a5ee779146100f057806328a216c01461010c5780633b284b0f1461013c5780633ccfd60b1461015857806349e0eaf114610162575b600080fd5b6100ee60048036038101906100e99190611243565b61024c565b005b61010a60048036038101906101059190611243565b6104ff565b005b610126600480360381019061012191906111b0565b61051f565b6040516101339190611843565b60405180910390f35b61015660048036038101906101519190611202565b6105eb565b005b6101606107c9565b005b61016a610973565b6040516101779190611843565b60405180910390f35b61018861097d565b005b610192610991565b60405161019f9190611668565b60405180910390f35b6101c260048036038101906101bd9190611243565b6109ba565b005b6101cc6109da565b6040516101d99190611843565b60405180910390f35b6101fc60048036038101906101f791906111b0565b6109e4565b60405161020991906116e3565b60405180910390f35b61022c600480360381019061022791906111b0565b610e00565b005b610236610e84565b6040516102439190611668565b60405180910390f35b610254610eae565b600660003373ffffffffffffffffffffffffffffffffffffffff1673ffffffffffffffffffffffffffffffffffffffff1681526020019081526020016000205442116102d5576040517f08c379a00000000000000000000000000000000000000000000000000000000081526004016102cc90611763565b60405180910390fd5b60008111610318576040517f08c379a000000000000000000000000000000000000000000000000000000000815260040161030f906117c3565b60405180910390fd5b60011515600460009054906101000a900473ffffffffffffffffffffffffffffffffffffffff1673ffffffffffffffffffffffffffffffffffffffff166323b872dd33306002548661036a91906119fa565b6040518463ffffffff1660e01b815260040161038893929190611683565b602060405180830381600087803b1580156103a257600080fd5b505af11580156103b6573d6000803e3d6000fd5b505050506040513d601f19601f820116820180604052508101906103da91906111d9565b15151461041c576040517f08c379a0000000000000000000000000000000000000000000000000000000008152600401610413906117a3565b60405180910390fd5b6003548161042a91906119fa565b4261043591906119a4565b600660003373ffffffffffffffffffffffffffffffffffffffff1673ffffffffffffffffffffffffffffffffffffffff168152602001908152602001600020819055507f3feb13992b2a29477182f8e631af3f14777d35f669d729d80fca9db9d56e179f428233600660003373ffffffffffffffffffffffffffffffffffffffff1673ffffffffffffffffffffffffffffffffffffffff168152602001908152602001600020546040516104ec9493929190611887565b60405180910390a16104fc610efe565b50565b610507610f07565b620f42408161051691906119fa565b60028190555050565b6000610529610991565b73ffffffffffffffffffffffffffffffffffffffff163373ffffffffffffffffffffffffffffffffffffffff1614156105a357600660008373ffffffffffffffffffffffffffffffffffffffff1673ffffffffffffffffffffffffffffffffffffffff1681526020019081526020016000205490506105e6565b600660003373ffffffffffffffffffffffffffffffffffffffff1673ffffffffffffffffffffffffffffffffffffffff1681526020019081526020016000205490505b919050565b6105f3610eae565b42600660003373ffffffffffffffffffffffffffffffffffffffff1673ffffffffffffffffffffffffffffffffffffffff1681526020019081526020016000205411610674576040517f08c379a000000000000000000000000000000000000000000000000000000000815260040161066b90611803565b60405180910390fd5b600060405180606001604052808381526020014281526020013373ffffffffffffffffffffffffffffffffffffffff168152509050600560003373ffffffffffffffffffffffffffffffffffffffff1673ffffffffffffffffffffffffffffffffffffffff168152602001908152602001600020819080600181540180825580915050600190039060005260206000209060030201600090919091909150600082015181600001908051906020019061072e929190611051565b506020820151816001015560408201518160020160006101000a81548173ffffffffffffffffffffffffffffffffffffffff021916908373ffffffffffffffffffffffffffffffffffffffff16021790555050507f9b3cc5d6d5738d19afa007574911bc980a6493cd80884edb45c2663885e5b3d78242336040516107b593929190611705565b60405180910390a1506107c6610efe565b50565b6107d1610f07565b6000600460009054906101000a900473ffffffffffffffffffffffffffffffffffffffff1673ffffffffffffffffffffffffffffffffffffffff166370a08231306040518263ffffffff1660e01b815260040161082e9190611668565b60206040518083038186803b15801561084657600080fd5b505afa15801561085a573d6000803e3d6000fd5b505050506040513d601f19601f8201168201806040525081019061087e919061126c565b9050600460009054906101000a900473ffffffffffffffffffffffffffffffffffffffff1673ffffffffffffffffffffffffffffffffffffffff1663a9059cbb6108c6610991565b836040518363ffffffff1660e01b81526004016108e49291906116ba565b602060405180830381600087803b1580156108fe57600080fd5b505af1158015610912573d6000803e3d6000fd5b505050506040513d601f19601f8201168201806040525081019061093691906111d9565b507fbf2ed60bd5b5965d685680c01195c9514e4382e28e3a5a2d2d5244bf59411b93814260405161096892919061185e565b60405180910390a150565b6000600254905090565b610985610f07565b61098f6000610f85565b565b60008060009054906101000a900473ffffffffffffffffffffffffffffffffffffffff16905090565b6109c2610f07565b62015180816109d191906119fa565b60038190555050565b6000600354905090565b60606000600560003373ffffffffffffffffffffffffffffffffffffffff1673ffffffffffffffffffffffffffffffffffffffff168152602001908152602001600020805490501180610a695750610a3a610991565b73ffffffffffffffffffffffffffffffffffffffff163373ffffffffffffffffffffffffffffffffffffffff16145b610aa8576040517f08c379a0000000000000000000000000000000000000000000000000000000008152600401610a9f90611823565b60405180910390fd5b610ab0610991565b73ffffffffffffffffffffffffffffffffffffffff163373ffffffffffffffffffffffffffffffffffffffff161415610c7157600560008373ffffffffffffffffffffffffffffffffffffffff1673ffffffffffffffffffffffffffffffffffffffff168152602001908152602001600020805480602002602001604051908101604052809291908181526020016000905b82821015610c665783829060005260206000209060030201604051806060016040529081600082018054610b7590611ade565b80601f0160208091040260200160405190810160405280929190818152602001828054610ba190611ade565b8015610bee5780601f10610bc357610100808354040283529160200191610bee565b820191906000526020600020905b815481529060010190602001808311610bd157829003601f168201915b50505050508152602001600182015481526020016002820160009054906101000a900473ffffffffffffffffffffffffffffffffffffffff1673ffffffffffffffffffffffffffffffffffffffff1673ffffffffffffffffffffffffffffffffffffffff168152505081526020019060010190610b42565b505050509050610dfb565b600560003373ffffffffffffffffffffffffffffffffffffffff1673ffffffffffffffffffffffffffffffffffffffff168152602001908152602001600020805480602002602001604051908101604052809291908181526020016000905b82821015610df45783829060005260206000209060030201604051806060016040529081600082018054610d0390611ade565b80601f0160208091040260200160405190810160405280929190818152602001828054610d2f90611ade565b8015610d7c5780601f10610d5157610100808354040283529160200191610d7c565b820191906000526020600020905b815481529060010190602001808311610d5f57829003601f168201915b50505050508152602001600182015481526020016002820160009054906101000a900473ffffffffffffffffffffffffffffffffffffffff1673ffffffffffffffffffffffffffffffffffffffff1673ffffffffffffffffffffffffffffffffffffffff168152505081526020019060010190610cd0565b5050505090505b919050565b610e08610f07565b600073ffffffffffffffffffffffffffffffffffffffff168173ffffffffffffffffffffffffffffffffffffffff161415610e78576040517f08c379a0000000000000000000000000000000000000000000000000000000008152600401610e6f90611743565b60405180910390fd5b610e8181610f85565b50565b6000600460009054906101000a900473ffffffffffffffffffffffffffffffffffffffff16905090565b60026001541415610ef4576040517f08c379a0000000000000000000000000000000000000000000000000000000008152600401610eeb906117e3565b60405180910390fd5b6002600181905550565b60018081905550565b610f0f611049565b73ffffffffffffffffffffffffffffffffffffffff16610f2d610991565b73ffffffffffffffffffffffffffffffffffffffff1614610f83576040517f08c379a0000000000000000000000000000000000000000000000000000000008152600401610f7a90611783565b60405180910390fd5b565b60008060009054906101000a900473ffffffffffffffffffffffffffffffffffffffff169050816000806101000a81548173ffffffffffffffffffffffffffffffffffffffff021916908373ffffffffffffffffffffffffffffffffffffffff1602179055508173ffffffffffffffffffffffffffffffffffffffff168173ffffffffffffffffffffffffffffffffffffffff167f8be0079c531659141344cd1fd0a4f28419497f9722a3daafe3b4186f6b6457e060405160405180910390a35050565b600033905090565b82805461105d90611ade565b90600052602060002090601f01602090048101928261107f57600085556110c6565b82601f1061109857805160ff19168380011785556110c6565b828001600101855582156110c6579182015b828111156110c55782518255916020019190600101906110aa565b5b5090506110d391906110d7565b5090565b5b808211156110f05760008160009055506001016110d8565b5090565b6000611107611102846118fd565b6118cc565b90508281526020810184848401111561111f57600080fd5b61112a848285611a9c565b509392505050565b60008135905061114181611bae565b92915050565b60008151905061115681611bc5565b92915050565b600082601f83011261116d57600080fd5b813561117d8482602086016110f4565b91505092915050565b60008135905061119581611bdc565b92915050565b6000815190506111aa81611bdc565b92915050565b6000602082840312156111c257600080fd5b60006111d084828501611132565b91505092915050565b6000602082840312156111eb57600080fd5b60006111f984828501611147565b91505092915050565b60006020828403121561121457600080fd5b600082013567ffffffffffffffff81111561122e57600080fd5b61123a8482850161115c565b91505092915050565b60006020828403121561125557600080fd5b600061126384828501611186565b91505092915050565b60006020828403121561127e57600080fd5b600061128c8482850161119b565b91505092915050565b60006112a183836115fa565b905092915050565b6112b281611a54565b82525050565b6112c181611a54565b82525050565b60006112d28261193d565b6112dc8185611960565b9350836020820285016112ee8561192d565b8060005b8581101561132a578484038952815161130b8582611295565b945061131683611953565b925060208a019950506001810190506112f2565b50829750879550505050505092915050565b600061134782611948565b6113518185611971565b9350611361818560208601611aab565b61136a81611b9d565b840191505092915050565b600061138082611948565b61138a8185611982565b935061139a818560208601611aab565b6113a381611b9d565b840191505092915050565b60006113bb602683611993565b91507f4f776e61626c653a206e6577206f776e657220697320746865207a65726f206160008301527f64647265737300000000000000000000000000000000000000000000000000006020830152604082019050919050565b6000611421601c83611993565b91507f537562736372697074696f6e206e6f74206578706972656420796574000000006000830152602082019050919050565b6000611461602083611993565b91507f4f776e61626c653a2063616c6c6572206973206e6f7420746865206f776e65726000830152602082019050919050565b60006114a1601883611993565b91507f436f756c64206e6f74207472616e7366657220746f6b656e00000000000000006000830152602082019050919050565b60006114e1601a83611993565b91507f4379636c6573206d757374206265206d6f7265207468616e20300000000000006000830152602082019050919050565b6000611521601f83611993565b91507f5265656e7472616e637947756172643a207265656e7472616e742063616c6c006000830152602082019050919050565b6000611561601f83611993565b91507f537562736372697074696f6e20696e76616c6964206f722045787069726564006000830152602082019050919050565b60006115a1602783611993565b91507f596f752068617665206e6f74206e6f746172697a656420616e7920646f63756d60008301527f656e7420796574000000000000000000000000000000000000000000000000006020830152604082019050919050565b60006060830160008301518482036000860152611617828261133c565b915050602083015161162c602086018261164a565b50604083015161163f60408601826112a9565b508091505092915050565b61165381611a92565b82525050565b61166281611a92565b82525050565b600060208201905061167d60008301846112b8565b92915050565b600060608201905061169860008301866112b8565b6116a560208301856112b8565b6116b26040830184611659565b949350505050565b60006040820190506116cf60008301856112b8565b6116dc6020830184611659565b9392505050565b600060208201905081810360008301526116fd81846112c7565b905092915050565b6000606082019050818103600083015261171f8186611375565b905061172e6020830185611659565b61173b60408301846112b8565b949350505050565b6000602082019050818103600083015261175c816113ae565b9050919050565b6000602082019050818103600083015261177c81611414565b9050919050565b6000602082019050818103600083015261179c81611454565b9050919050565b600060208201905081810360008301526117bc81611494565b9050919050565b600060208201905081810360008301526117dc816114d4565b9050919050565b600060208201905081810360008301526117fc81611514565b9050919050565b6000602082019050818103600083015261181c81611554565b9050919050565b6000602082019050818103600083015261183c81611594565b9050919050565b60006020820190506118586000830184611659565b92915050565b60006040820190506118736000830185611659565b6118806020830184611659565b9392505050565b600060808201905061189c6000830187611659565b6118a96020830186611659565b6118b660408301856112b8565b6118c36060830184611659565b95945050505050565b6000604051905081810181811067ffffffffffffffff821117156118f3576118f2611b6e565b5b8060405250919050565b600067ffffffffffffffff82111561191857611917611b6e565b5b601f19601f8301169050602081019050919050565b6000819050602082019050919050565b600081519050919050565b600081519050919050565b6000602082019050919050565b600082825260208201905092915050565b600082825260208201905092915050565b600082825260208201905092915050565b600082825260208201905092915050565b60006119af82611a92565b91506119ba83611a92565b9250827fffffffffffffffffffffffffffffffffffffffffffffffffffffffffffffffff038211156119ef576119ee611b10565b5b828201905092915050565b6000611a0582611a92565b9150611a1083611a92565b9250817fffffffffffffffffffffffffffffffffffffffffffffffffffffffffffffffff0483118215151615611a4957611a48611b10565b5b828202905092915050565b6000611a5f82611a72565b9050919050565b60008115159050919050565b600073ffffffffffffffffffffffffffffffffffffffff82169050919050565b6000819050919050565b82818337600083830152505050565b60005b83811015611ac9578082015181840152602081019050611aae565b83811115611ad8576000848401525b50505050565b60006002820490506001821680611af657607f821691505b60208210811415611b0a57611b09611b3f565b5b50919050565b7f4e487b7100000000000000000000000000000000000000000000000000000000600052601160045260246000fd5b7f4e487b7100000000000000000000000000000000000000000000000000000000600052602260045260246000fd5b7f4e487b7100000000000000000000000000000000000000000000000000000000600052604160045260246000fd5b6000601f19601f8301169050919050565b611bb781611a54565b8114611bc257600080fd5b50565b611bce81611a66565b8114611bd957600080fd5b50565b611be581611a92565b8114611bf057600080fd5b5056fea2646970667358221220bbcd709a776fb548f10d96000934e2fb08cef727f6ccc1019e29dbac122ee01764736f6c63430008000033",
  "immutableReferences": {},
  "source": "// SPDX-License-Identifier: MIT\r\npragma solidity ^0.8.0;\r\n\r\nimport \"./../node_modules/@openzeppelin/contracts/access/Ownable.sol\";\r\nimport \"./../node_modules/@openzeppelin/contracts/token/ERC20/IERC20.sol\";\r\nimport \"./../node_modules/@openzeppelin/contracts/security/ReentrancyGuard.sol\";\r\nimport \"./INotarize.sol\";\r\n\r\ncontract Notarize is Ownable, ReentrancyGuard, INotarize {\r\n    uint subscriptionPrice;\r\n    uint subscriptionPeriod;\r\n    address tokenPaymentAddress;\r\n\r\n    struct Doc {\r\n        bytes docHash;\r\n        uint timeNotarized;\r\n        address creator;\r\n    }\r\n\r\n    mapping(address => Doc[]) notarizedDocs;\r\n    mapping(address => uint) userSubscriptionDeadline;\r\n\r\n    constructor(address tokenAddress) {\r\n        tokenPaymentAddress = tokenAddress;\r\n        setSubscriptionPrice(3);\r\n        setSubscriptionPeriod(5);\r\n    }\r\n\r\n    function notarizeDoc(bytes memory ipfsHashOfDoc) public nonReentrant {\r\n        require(\r\n            userSubscriptionDeadline[msg.sender] > block.timestamp,\r\n            \"Subscription invalid or Expired\"\r\n        );\r\n        Doc memory newDoc = Doc(ipfsHashOfDoc, block.timestamp, msg.sender);\r\n        notarizedDocs[msg.sender].push(newDoc);\r\n        emit NotarizeDoc(ipfsHashOfDoc, block.timestamp, msg.sender);\r\n    }\r\n\r\n    function setSubscriptionPrice(uint newPrice) public onlyOwner {\r\n        subscriptionPrice = newPrice * 1000000;\r\n    }\r\n\r\n    function setSubscriptionPeriod(uint newPeriod) public onlyOwner {\r\n        subscriptionPeriod = newPeriod * 86400;\r\n    }\r\n\r\n    function subscribe(uint noOfSubscriptionCycles) public nonReentrant {\r\n        require(\r\n            block.timestamp > userSubscriptionDeadline[msg.sender],\r\n            \"Subscription not expired yet\"\r\n        );\r\n        require(noOfSubscriptionCycles > 0, \"Cycles must be more than 0\");\r\n        require(\r\n            IERC20(tokenPaymentAddress).transferFrom(\r\n                msg.sender,\r\n                address(this),\r\n                (noOfSubscriptionCycles * subscriptionPrice)\r\n            ) == true,\r\n            \"Could not transfer token\"\r\n        );\r\n        userSubscriptionDeadline[msg.sender] =\r\n            block.timestamp +\r\n            (noOfSubscriptionCycles * subscriptionPeriod);\r\n        emit Subscription(\r\n            block.timestamp,\r\n            noOfSubscriptionCycles,\r\n            msg.sender,\r\n            userSubscriptionDeadline[msg.sender]\r\n        );\r\n    }\r\n\r\n    function getNotarizedDocs(\r\n        address docCreator\r\n    ) public view returns (Doc[] memory userDocs) {\r\n        require(\r\n            notarizedDocs[msg.sender].length > 0 || msg.sender == owner(),\r\n            \"You have not notarized any document yet\"\r\n        );\r\n        if (msg.sender == owner()) {\r\n            return notarizedDocs[docCreator];\r\n        } else {\r\n            return notarizedDocs[msg.sender];\r\n        }\r\n    }\r\n\r\n    function getSubscriptionPrice() public view returns (uint) {\r\n        return subscriptionPrice;\r\n    }\r\n\r\n    function getSubscriptionPeriod() public view returns (uint) {\r\n        return subscriptionPeriod;\r\n    }\r\n\r\n    function getTokenPaymentAddress() public view returns (address) {\r\n        return tokenPaymentAddress;\r\n    }\r\n\r\n    function getUserSubscriptionDeadline(\r\n        address user\r\n    ) public view returns (uint) {\r\n        if (msg.sender == owner()) {\r\n            return userSubscriptionDeadline[user];\r\n        } else {\r\n            return userSubscriptionDeadline[msg.sender];\r\n        }\r\n    }\r\n\r\n    function withdraw() external onlyOwner {\r\n        uint contractBal = IERC20(tokenPaymentAddress).balanceOf(address(this));\r\n        IERC20(tokenPaymentAddress).transfer(owner(), contractBal);\r\n        emit Withdrawal(contractBal, block.timestamp);\r\n    }\r\n}\r\n",
  "sourcePath": "C:\\Users\\Ebenezer\\Desktop\\EBEN\\notarize-app\\contracts\\Notarize.sol",
  "compiler": {
    "name": "solc",
    "version": "0.8.0+commit.c7dfd78e.Emscripten.clang"
  },
  "schemaVersion": "3.4.11",
  "updatedAt": "2022-12-19T17:13:16.418Z",
  "devdoc": {
    "kind": "dev",
    "methods": {
      "owner()": {
        "details": "Returns the address of the current owner."
      },
      "renounceOwnership()": {
        "details": "Leaves the contract without owner. It will not be possible to call `onlyOwner` functions anymore. Can only be called by the current owner. NOTE: Renouncing ownership will leave the contract without an owner, thereby removing any functionality that is only available to the owner."
      },
      "transferOwnership(address)": {
        "details": "Transfers ownership of the contract to a new account (`newOwner`). Can only be called by the current owner."
      }
    },
    "version": 1
  },
  "userdoc": {
    "kind": "user",
    "methods": {},
    "version": 1
  }
}